{
  "contractName": "Certificate",
  "abi": [
    {
      "inputs": [
        {
          "internalType": "string",
          "name": "",
          "type": "string"
        }
      ],
      "name": "ipfsHashExists",
      "outputs": [
        {
          "internalType": "bool",
          "name": "",
          "type": "bool"
        }
      ],
      "stateMutability": "view",
      "type": "function",
      "constant": true
    },
    {
      "inputs": [
        {
          "internalType": "string",
          "name": "_ipfsHash",
          "type": "string"
        }
      ],
      "name": "setIpfsHash",
      "outputs": [],
      "stateMutability": "nonpayable",
      "type": "function"
    },
    {
      "inputs": [
        {
          "internalType": "string",
          "name": "_ipfsHash",
          "type": "string"
        }
      ],
      "name": "checkIpfsHash",
      "outputs": [
        {
          "internalType": "bool",
          "name": "",
          "type": "bool"
        }
      ],
      "stateMutability": "view",
      "type": "function",
      "constant": true
    },
    {
      "inputs": [],
      "name": "getAllIpfsHashes",
      "outputs": [
        {
          "internalType": "string[]",
          "name": "",
          "type": "string[]"
        }
      ],
      "stateMutability": "view",
      "type": "function",
      "constant": true
    }
  ],
  "bytecode": "0x608060405234801561001057600080fd5b50610775806100206000396000f3fe608060405234801561001057600080fd5b506004361061004c5760003560e01c80631a2110e6146100515780631d68a6d6146100815780634e3b62ec1461009f578063a91cbdd7146100bb575b600080fd5b61006b600480360381019061006691906104a1565b6100eb565b6040516100789190610505565b60405180910390f35b610089610121565b604051610096919061066a565b60405180910390f35b6100b960048036038101906100b491906104a1565b6101fa565b005b6100d560048036038101906100d091906104a1565b610270565b6040516100e29190610505565b60405180910390f35b6000818051602081018201805184825260208301602085012081835280955050505050506000915054906101000a900460ff1681565b60606001805480602002602001604051908101604052809291908181526020016000905b828210156101f1578382906000526020600020018054610164906106bb565b80601f0160208091040260200160405190810160405280929190818152602001828054610190906106bb565b80156101dd5780601f106101b2576101008083540402835291602001916101dd565b820191906000526020600020905b8154815290600101906020018083116101c057829003601f168201915b505050505081526020019060010190610145565b50505050905090565b600160008260405161020c9190610728565b908152602001604051809103902060006101000a81548160ff02191690831515021790555060018190806001815401808255809150506001900390600052602060002001600090919091909150908051906020019061026c9291906102a4565b5050565b600080826040516102819190610728565b908152602001604051809103902060009054906101000a900460ff169050919050565b8280546102b0906106bb565b90600052602060002090601f0160209004810192826102d25760008555610319565b82601f106102eb57805160ff1916838001178555610319565b82800160010185558215610319579182015b828111156103185782518255916020019190600101906102fd565b5b509050610326919061032a565b5090565b5b8082111561034357600081600090555060010161032b565b5090565b6000604051905090565b600080fd5b600080fd5b600080fd5b600080fd5b6000601f19601f8301169050919050565b7f4e487b7100000000000000000000000000000000000000000000000000000000600052604160045260246000fd5b6103ae82610365565b810181811067ffffffffffffffff821117156103cd576103cc610376565b5b80604052505050565b60006103e0610347565b90506103ec82826103a5565b919050565b600067ffffffffffffffff82111561040c5761040b610376565b5b61041582610365565b9050602081019050919050565b82818337600083830152505050565b600061044461043f846103f1565b6103d6565b9050828152602081018484840111156104605761045f610360565b5b61046b848285610422565b509392505050565b600082601f8301126104885761048761035b565b5b8135610498848260208601610431565b91505092915050565b6000602082840312156104b7576104b6610351565b5b600082013567ffffffffffffffff8111156104d5576104d4610356565b5b6104e184828501610473565b91505092915050565b60008115159050919050565b6104ff816104ea565b82525050565b600060208201905061051a60008301846104f6565b92915050565b600081519050919050565b600082825260208201905092915050565b6000819050602082019050919050565b600081519050919050565b600082825260208201905092915050565b60005b8381101561058657808201518184015260208101905061056b565b83811115610595576000848401525b50505050565b60006105a68261054c565b6105b08185610557565b93506105c0818560208601610568565b6105c981610365565b840191505092915050565b60006105e0838361059b565b905092915050565b6000602082019050919050565b600061060082610520565b61060a818561052b565b93508360208202850161061c8561053c565b8060005b85811015610658578484038952815161063985826105d4565b9450610644836105e8565b925060208a01995050600181019050610620565b50829750879550505050505092915050565b6000602082019050818103600083015261068481846105f5565b905092915050565b7f4e487b7100000000000000000000000000000000000000000000000000000000600052602260045260246000fd5b600060028204905060018216806106d357607f821691505b6020821081036106e6576106e561068c565b5b50919050565b600081905092915050565b60006107028261054c565b61070c81856106ec565b935061071c818560208601610568565b80840191505092915050565b600061073482846106f7565b91508190509291505056fea26469706673582212204fbe06e3aea0f238357468b9cda5376641016ec97b8619f861a629928e79c54f64736f6c634300080d0033",
  "immutableReferences": {},
  "source": "// SPDX-License-Identifier: MIT\r\npragma solidity ^0.8.0;\r\n\r\ncontract Certificate {\r\n    mapping(string => bool) public ipfsHashExists;\r\n    string[] private allHashes;\r\n\r\n    function setIpfsHash(string memory _ipfsHash) public {\r\n        ipfsHashExists[_ipfsHash] = true;\r\n        allHashes.push(_ipfsHash);\r\n    }\r\n\r\n    function checkIpfsHash(string memory _ipfsHash) public view returns (bool) {\r\n        return ipfsHashExists[_ipfsHash];\r\n    }\r\n\r\n    // Function to get all IPFS hashes stored in the map\r\n    function getAllIpfsHashes() public view returns (string[] memory) {\r\n        return allHashes;\r\n    }\r\n}\r\n",
  "sourcePath": "D:\\P\\Minor Project\\Certificate_Generator\\truffle\\contracts\\Certificate.sol",
  "compiler": {
    "name": "solc",
    "version": "0.8.13+commit.abaa5c0e.Emscripten.clang"
  },
  "schemaVersion": "3.4.16",
  "updatedAt": "2024-04-13T06:32:49.680Z",
  "networkType": "ethereum",
  "devdoc": {
    "kind": "dev",
    "methods": {},
    "version": 1
  },
  "userdoc": {
    "kind": "user",
    "methods": {},
    "version": 1
  }
}