{
  "contractName": "Certificate",
  "abi": [
    {
      "inputs": [
        {
          "internalType": "string",
          "name": "",
          "type": "string"
        }
      ],
      "name": "ipfsHashExists",
      "outputs": [
        {
          "internalType": "bool",
          "name": "",
          "type": "bool"
        }
      ],
      "stateMutability": "view",
      "type": "function",
      "constant": true
    },
    {
      "inputs": [
        {
          "internalType": "string",
          "name": "_ipfsHash",
          "type": "string"
        }
      ],
      "name": "setIpfsHash",
      "outputs": [],
      "stateMutability": "nonpayable",
      "type": "function"
    },
    {
      "inputs": [
        {
          "internalType": "string",
          "name": "_ipfsHash",
          "type": "string"
        }
      ],
      "name": "checkIpfsHash",
      "outputs": [
        {
          "internalType": "bool",
          "name": "",
          "type": "bool"
        }
      ],
      "stateMutability": "view",
      "type": "function",
      "constant": true
    }
  ],
  "bytecode": "0x608060405234801561001057600080fd5b50610406806100206000396000f3fe608060405234801561001057600080fd5b50600436106100415760003560e01c80631a2110e6146100465780634e3b62ec14610076578063a91cbdd714610092575b600080fd5b610060600480360381019061005b91906102c0565b6100c2565b60405161006d9190610324565b60405180910390f35b610090600480360381019061008b91906102c0565b6100f8565b005b6100ac60048036038101906100a791906102c0565b610132565b6040516100b99190610324565b60405180910390f35b6000818051602081018201805184825260208301602085012081835280955050505050506000915054906101000a900460ff1681565b600160008260405161010a91906103b9565b908152602001604051809103902060006101000a81548160ff02191690831515021790555050565b6000808260405161014391906103b9565b908152602001604051809103902060009054906101000a900460ff169050919050565b6000604051905090565b600080fd5b600080fd5b600080fd5b600080fd5b6000601f19601f8301169050919050565b7f4e487b7100000000000000000000000000000000000000000000000000000000600052604160045260246000fd5b6101cd82610184565b810181811067ffffffffffffffff821117156101ec576101eb610195565b5b80604052505050565b60006101ff610166565b905061020b82826101c4565b919050565b600067ffffffffffffffff82111561022b5761022a610195565b5b61023482610184565b9050602081019050919050565b82818337600083830152505050565b600061026361025e84610210565b6101f5565b90508281526020810184848401111561027f5761027e61017f565b5b61028a848285610241565b509392505050565b600082601f8301126102a7576102a661017a565b5b81356102b7848260208601610250565b91505092915050565b6000602082840312156102d6576102d5610170565b5b600082013567ffffffffffffffff8111156102f4576102f3610175565b5b61030084828501610292565b91505092915050565b60008115159050919050565b61031e81610309565b82525050565b60006020820190506103396000830184610315565b92915050565b600081519050919050565b600081905092915050565b60005b83811015610373578082015181840152602081019050610358565b83811115610382576000848401525b50505050565b60006103938261033f565b61039d818561034a565b93506103ad818560208601610355565b80840191505092915050565b60006103c58284610388565b91508190509291505056fea2646970667358221220b63a2d61ba4541a97aa8e943c63c042f60ec937807f0535852a4c610590f916f64736f6c634300080d0033",
  "immutableReferences": {},
  "source": "// MyContract.sol\r\npragma solidity ^0.8.0;\r\n\r\ncontract Certificate {\r\n    mapping(string => bool) public ipfsHashExists;\r\n\r\n    function setIpfsHash(string memory _ipfsHash) public {\r\n        ipfsHashExists[_ipfsHash] = true;\r\n    }\r\n\r\n    function checkIpfsHash(string memory _ipfsHash) public view returns (bool) {\r\n        return ipfsHashExists[_ipfsHash];\r\n    }\r\n}\r\n",
  "sourcePath": "D:\\P\\Minor Project\\Certificate_Generator\\truffle\\contracts\\Certificate.sol",
  "compiler": {
    "name": "solc",
    "version": "0.8.13+commit.abaa5c0e.Emscripten.clang"
  },
  "schemaVersion": "3.4.16",
  "updatedAt": "2024-04-12T18:23:28.057Z",
  "networkType": "ethereum",
  "devdoc": {
    "kind": "dev",
    "methods": {},
    "version": 1
  },
  "userdoc": {
    "kind": "user",
    "methods": {},
    "version": 1
  }
}